{
  "contractName": "MedicalConsent",
  "abi": [
    {
      "inputs": [],
      "stateMutability": "nonpayable",
      "type": "constructor"
    },
    {
      "anonymous": false,
      "inputs": [
        {
          "indexed": false,
          "internalType": "address",
          "name": "patient",
          "type": "address"
        },
        {
          "indexed": false,
          "internalType": "string",
          "name": "name",
          "type": "string"
        },
        {
          "indexed": false,
          "internalType": "string",
          "name": "dateSigned",
          "type": "string"
        }
      ],
      "name": "ConsentSigned",
      "type": "event"
    },
    {
      "inputs": [
        {
          "internalType": "address",
          "name": "",
          "type": "address"
        }
      ],
      "name": "consents",
      "outputs": [
        {
          "internalType": "string",
          "name": "patientName",
          "type": "string"
        },
        {
          "internalType": "string",
          "name": "dateSigned",
          "type": "string"
        },
        {
          "internalType": "bool",
          "name": "agreed",
          "type": "bool"
        }
      ],
      "stateMutability": "view",
      "type": "function",
      "constant": true
    },
    {
      "inputs": [
        {
          "internalType": "string",
          "name": "_name",
          "type": "string"
        },
        {
          "internalType": "string",
          "name": "_date",
          "type": "string"
        }
      ],
      "name": "signConsent",
      "outputs": [],
      "stateMutability": "nonpayable",
      "type": "function"
    },
    {
      "inputs": [
        {
          "internalType": "address",
          "name": "patient",
          "type": "address"
        }
      ],
      "name": "getConsent",
      "outputs": [
        {
          "components": [
            {
              "internalType": "string",
              "name": "patientName",
              "type": "string"
            },
            {
              "internalType": "string",
              "name": "dateSigned",
              "type": "string"
            },
            {
              "internalType": "bool",
              "name": "agreed",
              "type": "bool"
            }
          ],
          "internalType": "struct MedicalConsent.Consent",
          "name": "",
          "type": "tuple"
        }
      ],
      "stateMutability": "view",
      "type": "function",
      "constant": true
    }
  ],
  "bytecode": "0x6080604052348015600f57600080fd5b506107c68061001f6000396000f3fe608060405234801561001057600080fd5b50600436106100415760003560e01c80633607e0841461004657806383d23fb314610071578063970e4ed214610086575b600080fd5b6100596100543660046103fa565b6100a6565b60405161006893929190610470565b60405180910390f35b61008461007f36600461054d565b6101db565b005b6100996100943660046103fa565b610281565b60405161006891906105b6565b6000602081905290815260409020805481906100c190610608565b80601f01602080910402602001604051908101604052809291908181526020018280546100ed90610608565b801561013a5780601f1061010f5761010080835404028352916020019161013a565b820191906000526020600020905b81548152906001019060200180831161011d57829003601f168201915b50505050509080600101805461014f90610608565b80601f016020809104026020016040519081016040528092919081815260200182805461017b90610608565b80156101c85780601f1061019d576101008083540402835291602001916101c8565b820191906000526020600020905b8154815290600101906020018083116101ab57829003601f168201915b5050506002909301549192505060ff1683565b6040805160608101825283815260208082018490526001828401523360009081529081905291909120815181906102129082610691565b50602082015160018201906102279082610691565b50604091820151600291909101805460ff1916911515919091179055517f3ab1858c9cf39bf32794cfbbd4e52d827d2eb4c492ba236b79551f8444da72b79061027590339085908590610750565b60405180910390a15050565b604080516060808201835280825260208201526000918101919091526001600160a01b038216600090815260208190526040908190208151606081019092528054829082906102cf90610608565b80601f01602080910402602001604051908101604052809291908181526020018280546102fb90610608565b80156103485780601f1061031d57610100808354040283529160200191610348565b820191906000526020600020905b81548152906001019060200180831161032b57829003601f168201915b5050505050815260200160018201805461036190610608565b80601f016020809104026020016040519081016040528092919081815260200182805461038d90610608565b80156103da5780601f106103af576101008083540402835291602001916103da565b820191906000526020600020905b8154815290600101906020018083116103bd57829003601f168201915b50505091835250506002919091015460ff16151560209091015292915050565b60006020828403121561040c57600080fd5b81356001600160a01b038116811461042357600080fd5b9392505050565b6000815180845260005b8181101561045057602081850181015186830182015201610434565b506000602082860101526020601f19601f83011685010191505092915050565b606081526000610483606083018661042a565b8281036020840152610495818661042a565b9150508215156040830152949350505050565b634e487b7160e01b600052604160045260246000fd5b600082601f8301126104cf57600080fd5b813567ffffffffffffffff8111156104e9576104e96104a8565b604051601f8201601f19908116603f0116810167ffffffffffffffff81118282101715610518576105186104a8565b60405281815283820160200185101561053057600080fd5b816020850160208301376000918101602001919091529392505050565b6000806040838503121561056057600080fd5b823567ffffffffffffffff81111561057757600080fd5b610583858286016104be565b925050602083013567ffffffffffffffff8111156105a057600080fd5b6105ac858286016104be565b9150509250929050565b6020815260008251606060208401526105d2608084018261042a565b90506020840151601f198483030160408501526105ef828261042a565b9150506040840151151560608401528091505092915050565b600181811c9082168061061c57607f821691505b60208210810361063c57634e487b7160e01b600052602260045260246000fd5b50919050565b601f82111561068c57806000526020600020601f840160051c810160208510156106695750805b601f840160051c820191505b818110156106895760008155600101610675565b50505b505050565b815167ffffffffffffffff8111156106ab576106ab6104a8565b6106bf816106b98454610608565b84610642565b6020601f8211600181146106f357600083156106db5750848201515b600019600385901b1c1916600184901b178455610689565b600084815260208120601f198516915b828110156107235787850151825560209485019460019092019101610703565b50848210156107415786840151600019600387901b60f8161c191681555b50505050600190811b01905550565b6001600160a01b03841681526060602082018190526000906107749083018561042a565b8281036040840152610786818561042a565b969550505050505056fea26469706673582212204c9e1c075c9b35a38f9f82c7398632ae997e8092e03cd8a983c3a0f7faf4f0a764736f6c634300081e0033",
  "immutableReferences": {},
  "source": "// SPDX-License-Identifier: MIT\npragma solidity ^0.8.0;\n\ncontract MedicalConsent {\n    struct Consent {\n        string patientName;\n        string dateSigned;\n        bool agreed;\n    }\n\n    constructor() {\n\n    }\n    mapping(address => Consent) public consents;\n\n    event ConsentSigned(address patient, string name, string dateSigned);\n\n    function signConsent(string memory _name, string memory _date) public {\n        consents[msg.sender] = Consent(_name, _date, true);\n        emit ConsentSigned(msg.sender, _name, _date);\n    }\n\n    function getConsent(address patient) public view returns (Consent memory) {\n        return consents[patient];\n    }\n}\n",
  "sourcePath": "/Users/iuliansima/WebstormProjects/Stomato/contracts/MedicalConsent.sol",
  "compiler": {
    "name": "solc",
    "version": "0.8.30+commit.73712a01.Emscripten.clang"
  },
  "schemaVersion": "3.4.16",
  "updatedAt": "2025-05-23T15:10:48.853Z",
  "networkType": "ethereum",
  "devdoc": {
    "kind": "dev",
    "methods": {},
    "version": 1
  },
  "userdoc": {
    "kind": "user",
    "methods": {},
    "version": 1
  }
}