{
  "contractName": "MedicalConsent",
  "abi": [
    {
      "anonymous": false,
      "inputs": [
        {
          "indexed": false,
          "internalType": "address",
          "name": "patient",
          "type": "address"
        },
        {
          "indexed": false,
          "internalType": "string",
          "name": "name",
          "type": "string"
        },
        {
          "indexed": false,
          "internalType": "string",
          "name": "dateSigned",
          "type": "string"
        }
      ],
      "name": "ConsentSigned",
      "type": "event"
    },
    {
      "inputs": [
        {
          "internalType": "address",
          "name": "",
          "type": "address"
        }
      ],
      "name": "consents",
      "outputs": [
        {
          "internalType": "string",
          "name": "patientName",
          "type": "string"
        },
        {
          "internalType": "string",
          "name": "dateSigned",
          "type": "string"
        },
        {
          "internalType": "bool",
          "name": "agreed",
          "type": "bool"
        }
      ],
      "stateMutability": "view",
      "type": "function"
    },
    {
      "inputs": [
        {
          "internalType": "string",
          "name": "_name",
          "type": "string"
        },
        {
          "internalType": "string",
          "name": "_date",
          "type": "string"
        }
      ],
      "name": "signConsent",
      "outputs": [],
      "stateMutability": "nonpayable",
      "type": "function"
    },
    {
      "inputs": [
        {
          "internalType": "address",
          "name": "patient",
          "type": "address"
        }
      ],
      "name": "getConsent",
      "outputs": [
        {
          "components": [
            {
              "internalType": "string",
              "name": "patientName",
              "type": "string"
            },
            {
              "internalType": "string",
              "name": "dateSigned",
              "type": "string"
            },
            {
              "internalType": "bool",
              "name": "agreed",
              "type": "bool"
            }
          ],
          "internalType": "struct MedicalConsent.Consent",
          "name": "",
          "type": "tuple"
        }
      ],
      "stateMutability": "view",
      "type": "function"
    }
  ],
  "bytecode": "0x6080604052348015600e575f5ffd5b50610bc18061001c5f395ff3fe608060405234801561000f575f5ffd5b506004361061003f575f3560e01c80633607e0841461004357806383d23fb314610075578063970e4ed214610091575b5f5ffd5b61005d600480360381019061005891906104ff565b6100c1565b60405161006c939291906105b4565b60405180910390f35b61008f600480360381019061008a9190610723565b6101fe565b005b6100ab60048036038101906100a691906104ff565b6102e3565b6040516100b89190610844565b60405180910390f35b5f602052805f5260405f205f91509050805f0180546100df90610891565b80601f016020809104026020016040519081016040528092919081815260200182805461010b90610891565b80156101565780601f1061012d57610100808354040283529160200191610156565b820191905f5260205f20905b81548152906001019060200180831161013957829003601f168201915b50505050509080600101805461016b90610891565b80601f016020809104026020016040519081016040528092919081815260200182805461019790610891565b80156101e25780601f106101b9576101008083540402835291602001916101e2565b820191905f5260205f20905b8154815290600101906020018083116101c557829003601f168201915b505050505090806002015f9054906101000a900460ff16905083565b6040518060600160405280838152602001828152602001600115158152505f5f3373ffffffffffffffffffffffffffffffffffffffff1673ffffffffffffffffffffffffffffffffffffffff1681526020019081526020015f205f820151815f01908161026b9190610a6a565b5060208201518160010190816102819190610a6a565b506040820151816002015f6101000a81548160ff0219169083151502179055509050507f3ab1858c9cf39bf32794cfbbd4e52d827d2eb4c492ba236b79551f8444da72b73383836040516102d793929190610b48565b60405180910390a15050565b6102eb610472565b5f5f8373ffffffffffffffffffffffffffffffffffffffff1673ffffffffffffffffffffffffffffffffffffffff1681526020019081526020015f206040518060600160405290815f8201805461034190610891565b80601f016020809104026020016040519081016040528092919081815260200182805461036d90610891565b80156103b85780601f1061038f576101008083540402835291602001916103b8565b820191905f5260205f20905b81548152906001019060200180831161039b57829003601f168201915b505050505081526020016001820180546103d190610891565b80601f01602080910402602001604051908101604052809291908181526020018280546103fd90610891565b80156104485780601f1061041f57610100808354040283529160200191610448565b820191905f5260205f20905b81548152906001019060200180831161042b57829003601f168201915b50505050508152602001600282015f9054906101000a900460ff1615151515815250509050919050565b604051806060016040528060608152602001606081526020015f151581525090565b5f604051905090565b5f5ffd5b5f5ffd5b5f73ffffffffffffffffffffffffffffffffffffffff82169050919050565b5f6104ce826104a5565b9050919050565b6104de816104c4565b81146104e8575f5ffd5b50565b5f813590506104f9816104d5565b92915050565b5f602082840312156105145761051361049d565b5b5f610521848285016104eb565b91505092915050565b5f81519050919050565b5f82825260208201905092915050565b8281835e5f83830152505050565b5f601f19601f8301169050919050565b5f61056c8261052a565b6105768185610534565b9350610586818560208601610544565b61058f81610552565b840191505092915050565b5f8115159050919050565b6105ae8161059a565b82525050565b5f6060820190508181035f8301526105cc8186610562565b905081810360208301526105e08185610562565b90506105ef60408301846105a5565b949350505050565b5f5ffd5b5f5ffd5b7f4e487b71000000000000000000000000000000000000000000000000000000005f52604160045260245ffd5b61063582610552565b810181811067ffffffffffffffff82111715610654576106536105ff565b5b80604052505050565b5f610666610494565b9050610672828261062c565b919050565b5f67ffffffffffffffff821115610691576106906105ff565b5b61069a82610552565b9050602081019050919050565b828183375f83830152505050565b5f6106c76106c284610677565b61065d565b9050828152602081018484840111156106e3576106e26105fb565b5b6106ee8482856106a7565b509392505050565b5f82601f83011261070a576107096105f7565b5b813561071a8482602086016106b5565b91505092915050565b5f5f604083850312156107395761073861049d565b5b5f83013567ffffffffffffffff811115610756576107556104a1565b5b610762858286016106f6565b925050602083013567ffffffffffffffff811115610783576107826104a1565b5b61078f858286016106f6565b9150509250929050565b5f82825260208201905092915050565b5f6107b38261052a565b6107bd8185610799565b93506107cd818560208601610544565b6107d681610552565b840191505092915050565b6107ea8161059a565b82525050565b5f606083015f8301518482035f86015261080a82826107a9565b9150506020830151848203602086015261082482826107a9565b915050604083015161083960408601826107e1565b508091505092915050565b5f6020820190508181035f83015261085c81846107f0565b905092915050565b7f4e487b71000000000000000000000000000000000000000000000000000000005f52602260045260245ffd5b5f60028204905060018216806108a857607f821691505b6020821081036108bb576108ba610864565b5b50919050565b5f819050815f5260205f209050919050565b5f6020601f8301049050919050565b5f82821b905092915050565b5f6008830261091d7fffffffffffffffffffffffffffffffffffffffffffffffffffffffffffffffff826108e2565b61092786836108e2565b95508019841693508086168417925050509392505050565b5f819050919050565b5f819050919050565b5f61096b6109666109618461093f565b610948565b61093f565b9050919050565b5f819050919050565b61098483610951565b61099861099082610972565b8484546108ee565b825550505050565b5f5f905090565b6109af6109a0565b6109ba81848461097b565b505050565b5b818110156109dd576109d25f826109a7565b6001810190506109c0565b5050565b601f821115610a22576109f3816108c1565b6109fc846108d3565b81016020851015610a0b578190505b610a1f610a17856108d3565b8301826109bf565b50505b505050565b5f82821c905092915050565b5f610a425f1984600802610a27565b1980831691505092915050565b5f610a5a8383610a33565b9150826002028217905092915050565b610a738261052a565b67ffffffffffffffff811115610a8c57610a8b6105ff565b5b610a968254610891565b610aa18282856109e1565b5f60209050601f831160018114610ad2575f8415610ac0578287015190505b610aca8582610a4f565b865550610b31565b601f198416610ae0866108c1565b5f5b82811015610b0757848901518255600182019150602085019450602081019050610ae2565b86831015610b245784890151610b20601f891682610a33565b8355505b6001600288020188555050505b505050505050565b610b42816104c4565b82525050565b5f606082019050610b5b5f830186610b39565b8181036020830152610b6d8185610562565b90508181036040830152610b818184610562565b905094935050505056fea264697066735822122082c927d7d6769a211bfdd061c395a96270eda816973fad150939f258fbc0bf7964736f6c634300081d0033",
  "immutableReferences": {},
  "source": "// SPDX-License-Identifier: MIT\npragma solidity ^0.8.0;\n\ncontract MedicalConsent {\n    struct Consent {\n        string patientName;\n        string dateSigned;\n        bool agreed;\n    }\n\n    mapping(address => Consent) public consents;\n\n    event ConsentSigned(address patient, string name, string dateSigned);\n\n    function signConsent(string memory _name, string memory _date) public {\n        consents[msg.sender] = Consent(_name, _date, true);\n        emit ConsentSigned(msg.sender, _name, _date);\n    }\n\n    function getConsent(address patient) public view returns (Consent memory) {\n        return consents[patient];\n    }\n}\n",
  "sourcePath": "/Users/iuliansima/WebstormProjects/Stomato/contracts/MedicalConsent.sol",
  "compiler": {
    "name": "solc",
    "version": "0.8.29+commit.ab55807c.Emscripten.clang"
  },
  "schemaVersion": "3.4.16",
  "updatedAt": "2025-05-06T17:58:12.018Z",
  "devdoc": {
    "kind": "dev",
    "methods": {},
    "version": 1
  },
  "userdoc": {
    "kind": "user",
    "methods": {},
    "version": 1
  }
}